{
  "contractName": "Credit",
  "abi": [
    {
      "inputs": [],
      "stateMutability": "nonpayable",
      "type": "constructor"
    },
    {
      "inputs": [],
      "name": "getCreditLimit",
      "outputs": [
        {
          "internalType": "uint256",
          "name": "",
          "type": "uint256"
        }
      ],
      "stateMutability": "view",
      "type": "function"
    },
    {
      "inputs": [
        {
          "internalType": "uint256",
          "name": "travel",
          "type": "uint256"
        },
        {
          "internalType": "uint256",
          "name": "food",
          "type": "uint256"
        },
        {
          "internalType": "uint256",
          "name": "stay",
          "type": "uint256"
        }
      ],
      "name": "expenses",
      "outputs": [
        {
          "internalType": "string",
          "name": "",
          "type": "string"
        }
      ],
      "stateMutability": "nonpayable",
      "type": "function"
    },
    {
      "inputs": [],
      "name": "resetCreditLimit",
      "outputs": [],
      "stateMutability": "nonpayable",
      "type": "function"
    }
  ],
  "bytecode": "0x608060405261271060005534801561001657600080fd5b5033600160006101000a81548173ffffffffffffffffffffffffffffffffffffffff021916908373ffffffffffffffffffffffffffffffffffffffff160217905550612710600081905550610492806100706000396000f3fe608060405234801561001057600080fd5b50600436106100415760003560e01c806306f21e6f1461004657806363e2c3ca14610050578063f78be85a14610080575b600080fd5b61004e61009e565b005b61006a60048036038101906100659190610238565b6100a9565b604051610077919061031b565b60405180910390f35b610088610163565b604051610095919061034c565b60405180910390f35b612710600081905550565b60608183856000546100bb9190610396565b6100c59190610396565b6100cf9190610396565b6000819055506000805410610123576100e661009e565b6040518060400160405280601e81526020017f43616e6e6f742070726f6365737320746865207472616e73616374696f6e0000815250905061015c565b6040518060400160405280601381526020017f5472616e73616374696f6e20737563636573730000000000000000000000000081525090505b9392505050565b60003373ffffffffffffffffffffffffffffffffffffffff16600160009054906101000a900473ffffffffffffffffffffffffffffffffffffffff1673ffffffffffffffffffffffffffffffffffffffff16146101f5576040517f08c379a00000000000000000000000000000000000000000000000000000000081526004016101ec9061043c565b60405180910390fd5b600054905090565b600080fd5b6000819050919050565b61021581610202565b811461022057600080fd5b50565b6000813590506102328161020c565b92915050565b600080600060608486031215610251576102506101fd565b5b600061025f86828701610223565b935050602061027086828701610223565b925050604061028186828701610223565b9150509250925092565b600081519050919050565b600082825260208201905092915050565b60005b838110156102c55780820151818401526020810190506102aa565b60008484015250505050565b6000601f19601f8301169050919050565b60006102ed8261028b565b6102f78185610296565b93506103078185602086016102a7565b610310816102d1565b840191505092915050565b6000602082019050818103600083015261033581846102e2565b905092915050565b61034681610202565b82525050565b6000602082019050610361600083018461033d565b92915050565b7f4e487b7100000000000000000000000000000000000000000000000000000000600052601160045260246000fd5b60006103a182610202565b91506103ac83610202565b92508282039050818111156103c4576103c3610367565b5b92915050565b7f4f6e6c79206f776e65722063616e20616363657373207468652066756e63746960008201527f6f6e000000000000000000000000000000000000000000000000000000000000602082015250565b6000610426602283610296565b9150610431826103ca565b604082019050919050565b6000602082019050818103600083015261045581610419565b905091905056fea26469706673582212204a947a6c352a78a6b0ca7d9bd367046508cd26ddc0c0b6bcf03317aacbfe131764736f6c63430008110033",
  "immutableReferences": {},
  "source": "//Name - Kushal Shah   UID - 2019140057\n\n\npragma solidity >=0.5.0 <0.9.0;\n\ncontract Credit{\n    uint creditLimit = 10000;\n\n    address owner;\n    constructor(){\n        owner = msg.sender;\n        creditLimit = 10000;\n    }\n\n    function getCreditLimit() public view returns(uint){\n        require(owner == msg.sender, \"Only owner can access the function\");\n        return creditLimit;\n    }\n\n    function expenses(uint travel, uint food, uint stay) public returns (string memory){\n        \n        creditLimit = creditLimit - travel - food - stay;\n        if(creditLimit>=0){\n            resetCreditLimit();\n            return (\"Cannot process the transaction\");\n        }\n        return (\"Transaction success\");\n    }\n\n    function resetCreditLimit() public {\n        creditLimit = 10000;\n    }\n     \n}\n",
  "sourcePath": "/home/hadoopuser/Documents/Blockchain/contracts/credit.sol",
  "compiler": {
    "name": "solc",
    "version": "0.8.17+commit.8df45f5f.Emscripten.clang"
  },
  "schemaVersion": "3.4.10",
  "updatedAt": "2022-11-01T10:08:47.562Z",
  "devdoc": {
    "kind": "dev",
    "methods": {},
    "version": 1
  },
  "userdoc": {
    "kind": "user",
    "methods": {},
    "version": 1
  }
}